{
  "contractName": "FundTransfer",
  "abi": [
    {
      "inputs": [
        {
          "internalType": "uint256",
          "name": "",
          "type": "uint256"
        }
      ],
      "name": "Funders",
      "outputs": [
        {
          "internalType": "address",
          "name": "",
          "type": "address"
        }
      ],
      "stateMutability": "view",
      "type": "function",
      "constant": true
    },
    {
      "inputs": [],
      "name": "numOfFunders",
      "outputs": [
        {
          "internalType": "uint256",
          "name": "",
          "type": "uint256"
        }
      ],
      "stateMutability": "view",
      "type": "function",
      "constant": true
    },
    {
      "stateMutability": "payable",
      "type": "receive",
      "payable": true
    },
    {
      "inputs": [],
      "name": "depositMoney",
      "outputs": [],
      "stateMutability": "payable",
      "type": "function",
      "payable": true
    },
    {
      "inputs": [
        {
          "internalType": "uint256",
          "name": "_amount",
          "type": "uint256"
        }
      ],
      "name": "withdrawMoney",
      "outputs": [],
      "stateMutability": "nonpayable",
      "type": "function"
    }
  ],
  "bytecode": "0x608060405234801561001057600080fd5b506103d3806100206000396000f3fe6080604052600436106100435760003560e01c806316c05aa21461004f57806348e2f81b146100595780635487692114610096578063af7f2c9b146100bf5761004a565b3661004a57005b600080fd5b6100576100ea565b005b34801561006557600080fd5b50610080600480360381019061007b9190610247565b61013f565b60405161008d91906102b5565b60405180910390f35b3480156100a257600080fd5b506100bd60048036038101906100b89190610247565b610172565b005b3480156100cb57600080fd5b506100d4610206565b6040516100e191906102df565b60405180910390f35b33600160008054815260200190815260200160002060006101000a81548173ffffffffffffffffffffffffffffffffffffffff021916908373ffffffffffffffffffffffffffffffffffffffff160217905550565b60016020528060005260406000206000915054906101000a900473ffffffffffffffffffffffffffffffffffffffff1681565b671bc16d674ec8000081106101bc576040517f08c379a00000000000000000000000000000000000000000000000000000000081526004016101b39061037d565b60405180910390fd5b3373ffffffffffffffffffffffffffffffffffffffff166108fc829081150290604051600060405180830381858888f19350505050158015610202573d6000803e3d6000fd5b5050565b60005481565b600080fd5b6000819050919050565b61022481610211565b811461022f57600080fd5b50565b6000813590506102418161021b565b92915050565b60006020828403121561025d5761025c61020c565b5b600061026b84828501610232565b91505092915050565b600073ffffffffffffffffffffffffffffffffffffffff82169050919050565b600061029f82610274565b9050919050565b6102af81610294565b82525050565b60006020820190506102ca60008301846102a6565b92915050565b6102d981610211565b82525050565b60006020820190506102f460008301846102d0565b92915050565b600082825260208201905092915050565b7f796f752063616e6e6f74207769746864726177206d6f7265207468616e20322060008201527f6574686572730000000000000000000000000000000000000000000000000000602082015250565b60006103676026836102fa565b91506103728261030b565b604082019050919050565b600060208201905081810360008301526103968161035a565b905091905056fea2646970667358221220c44c2ce7d0e2c233b8ea3cd698d6fd26a862bf7ec277afec20a26415c64c9bcc64736f6c634300080d0033",
  "immutableReferences": {},
  "source": "// SPDX-License-Identifier: MIT\npragma solidity >=0.4.22 <0.9.0;\n\ncontract FundTransfer {\n    uint256 public numOfFunders;\n    mapping(uint256 => address) public Funders;\n\n    receive() external payable {}\n\n    function depositMoney() external payable {\n        Funders[numOfFunders] = msg.sender;\n    }\n\n    function withdrawMoney(uint256 _amount) external {\n        require(\n            _amount < 2000000000000000000,\n            \"you cannot withdraw more than 2 ethers\"\n        );\n        payable(msg.sender).transfer(_amount);\n    }\n}\n",
  "sourcePath": "/home/shivanshu/Desktop/DAPP2/contracts/FundTransfer.sol",
  "compiler": {
    "name": "solc",
    "version": "0.8.13+commit.abaa5c0e.Emscripten.clang"
  },
  "schemaVersion": "3.4.7",
  "updatedAt": "2022-05-18T10:03:09.518Z",
  "networkType": "ethereum",
  "devdoc": {
    "kind": "dev",
    "methods": {},
    "version": 1
  },
  "userdoc": {
    "kind": "user",
    "methods": {},
    "version": 1
  }
}